:020000040000fa
:080000000001040000000000f3
:020000040000fa
:10000800d2010000d2010000d2010000d20100009c
:10001800d2010000d2010000d2010000d20100008c
:10002800d2010000d2010000d2010000d20100007c
:10003800d2010000d2010000d2010000d20100006c
:10004800d2010000d2010000d2010000d20100005c
:10005800d2010000d2010000d2010000d20100004c
:1000680000020000d2010000d2010000d20100000d
:10007800d2010000d2010000d2010000d20100002c
:10008800d2010000d2010000d2010000d20100001c
:10009800d2010000d2010000d2010000d20100000c
:1000a800d2010000d2010000d2010000d2010000fc
:1000b800d2010000d2010000d2010000d2010000ec
:1000c800d2010000d2010000d2010000d2010000dc
:1000d800d2010000d2010000d2010000d2010000cc
:1000e800d2010000d2010000d2010000d2010000bc
:1000f800d2010000d2010000d2010000d2010000ac
:10010800d2010000d2010000d2010000d20100009b
:10011800d2010000d2010000d2010000d20100008b
:10012800d2010000d2010000d2010000d20100007b
:10013800d2010000d2010000d2010000d20100006b
:10014800d2010000d2010000d2010000d20100005b
:10015800d2010000d2010000d2010000d20100004b
:10016800d2010000d2010000d2010000d20100003b
:10017800d2010000d2010000d2010000d20100002b
:10018800d2010000d2010000d2010000d20100001b
:10019800d2010000d2010000d2010000d20100000b
:1001a800d2010000d2010000d2010000d2010000fb
:1001b800d2010000d2010000d2010000d2010000eb
:1001c800d2010000d2010000d2010000d2010000db
:1001d800d2010000d2010000d2010000d2010000cb
:1001e800d2010000d2010000d2010000d2010000bb
:0801f800d2010000d201000059
:020000040000fa
:100200000f8520000e7f24000e01880000000000f2
:10021000000020000000e000020032000001200089
:10022000200288000c000700004e20000100200082
:100230000f000700000020000000e0000200320074
:1002400000000200000000004e0502000000000057
:100250000040da000000fe00200020000000e00066
:10026000020032001000200090018800000006000b
:10027000a1028800800078000000eb001a0037001f
:10028000e280400054a0b4009101ba00e280400036
:1002900054a0b4009102ba00e280400054a0b4001f
:1002a0000002eb00472bde00f507b200a601880034
:1002b000602ce10008003a000049eb000201e80070
:1002c000020039003420ec0002f0a0008301e900b4
:1002d000f9ff3e00040037006128e1000100320010
:1002e0000082eb00040007001101ba000200e000e8
:1002f000e3ff3a000000060004d0a300e20f49002b
:100300001c003900810278003549ba000201e8007a
:10031000020039003420ec0002f0a0008301e90063
:100320000f0032002549ba000201e800020039003e
:100330003420ec0002f0a0008301e9000800320044
:100340000400e0000600320015c9ba000201e8000e
:10035000020039003420ec0002f0a0008301e90023
:100360008180e80054a0b4000300e000e2ff3a00fe
:10037000000006009102ba00055978008301e900e7
:10038000f7ff3200c82ade00055978008301e90032
:10039000f3ff32000400e000f1ff320011d9ba008f
:0c03a000eeff37000040da000000fe0015
:020000040000fa
:1003ac000000fa0000002800d02488009e24ef00f2
:1003bc0070032000f30007000000eb00e5000700cd
:1003cc000028ef000000eb00ba0007000000eb0073
:1003dc00c40007008a00a9009a00a8000080fa0057
:1003ec00000006000000fa00edff07000080fa0094
:1003fc00000006003600f800809fbe00829fbe0001
:10040c00849fbe00869fbe000200fa000040800060
:10041c00e20f500087003200e20f50000300390059
:10042c00e30f50007600320094003700d124800096
:10043c0000402000008060000000e00005003a0051
:10044c00f124800000022000008060000000e00029
:10045c000a003200d12480000008200000806000d7
:10046c000000e00021003200f12480000020200078
:10047c00008060000000e0001c003200f0248000ce
:10048c00640060000000e0000b003a001000200047
:10049c00e90007000ee8b7001000200000408800bb
:1004ac000ec8bf000004e00038003200a024800019
:1004bc00004f7800360037000000eb00de0007002c
:1004cc00204080000000e000050032002040800049
:1004dc00104078000080fb00b02488009b84a800aa
:1004ec00200020000040880029003700d124800023
:1004fc0000402000008060000000e000240032007a
:10050c00f124800000022000008060000000e00068
:10051c001f003a00f0248000640060000000e0003e
:10052c0004003a000a68ef00300020000040880008
:10053c00130037000ac8bf000004e0000d003200b1
:10054c000000eb00bc000700204080000000e00031
:10055c000500320020408000104078000080fb0035
:10056c00b02488009b84a800200020000040880054
:10057c00030037000a68ef003000200000408800bc
:10058c00a0248000004f780001003700000000001c
:10059c0000408000e10f500039003a00f124800047
:1005ac0000022000008060000000e00036003200f5
:1005bc00f124800000042000008060000000e000b6
:1005cc000b003a00104080000000e00004003200f4
:1005dc0010408000a1248000814078000148780000
:1005ec0020002000940007000ee8b7002900370017
:1005fc00a0248000004f78009ec4a900250037007d
:10060c00300020008c0007000ee8b70010c0b300cb
:10061c000ae8b7000ec8bf000004e0000200320078
:10062c00a0248000004f78001000200000408800bb
:10063c0018003700f12480000000280000806000c2
:10064c000000e0000b003a000000eb007a0007000d
:10065c00204080000000e0000d00320020408000af
:10066c00104078000080fb00b02488009b84a80018
:10067c00080037000028ef0006003700ffff3700a6
:10068c0000000000030037000000000001003700ec
:10069c00000000008a00a9000080fa004f03be0091
:1006ac004f02be004f01be004f00be003600f900e5
:1006bc00004006000200fa00000f78009e0078004f
:1006cc00214088000080fa00000006000200fa00b9
:1006dc00000f78001e007800f6ff07000080fa007b
:1006ec00000006000200fa00000f78009e0078005f
:1006fc00114088000080fa00000006000200fa0099
:10070c00000f78001e007800f6ff07000080fa004a
:10071c00000006000000fa00204080000080fa0073
:10072c00000006000000fa00faff07000080fa0043
:10073c00000006000000fa00104080000080fa0063
:10074c00000006000000fa00faff07000080fa0023
:10075c00000006000200fa00000f78009e007800ee
:10076c00112588000080fa00000006000200fa0043
:10077c00000f78001e007800f6ff07000080fa00da
:10078c00000006000200fa00000f7800f0072000bd
:10079c009e007800808f5000020036009b44a80019
:1007ac00010037009b44a9000028ef009e00780050
:1007bc00012588000080fa00000006000200fa0003
:1007cc00000f78001e007800eeff07000080fa0092
:1007dc00000006000000fa00204080000000e0004d
:1007ec000600320020408000104078000080fb00a2
:1007fc00b02488009b84a800010037000000000092
:10080c000080fa00000006000000fa001040800092
:10081c000000e0000500320010408000a1248000a0
:10082c00814078000148780001003700000000008a
:10083c000080fa00000006000200fa00000f7800a9
:10084c001e007800e10f50000d003200e10f500047
:10085c0003003900e20f50000f0032002e00370069
:10086c0031408000008120000080400091ff070093
:10087c00304080000000e80030408800260037003f
:10088c000828ef0010c0b3000de8b700c0802000ae
:10089c0094ff0700200037000dc8bf000004e000e3
:1008ac0016003200404080000000e00008003a00d2
:1008bc000cc8bf000080fb004800dd003040880001
:1008cc00404080000000e8004040880012003700e3
:1008dc0040408000e10f50000e003a000cc8bf00f1
:1008ec008080fb00304080000100700030408800a8
:1008fc000828ef000d68ef0007003700304080003b
:10090c00c2802000124178000181200082707800a2
:10091c00010037000000000010c0b3000080fa0096
:10092c00000006000000fa006226ef00f06f2c00b9
:10093c00f03288007626ef000080eb0090338800c0
:10094c008a26ef00e0012900303488009e26ef0053
:10095c000080eb00d0348800b226ef00f03f20007e
:10096c0070358800c626ef00f01f23001036880073
:10097c00da26ef00f03c2f00b0368800006c200027
:10098c00303388000080eb00d03388000001200059
:10099c007034880000cc200010358800002f200017
:1009ac00b0358800003c2000f03688000080fa004a
:0409bc000000060031
:020000040000fa
:1009c000100800004000000082000000ffffff0050
:1009d000ffffff00ffffff00ffffff00ffffff0023
:1009e000ffffff00ffffff00ffffff00ffffff0013
:1009f000ffffff00ffffff00ffffff00ffffff0003
:100a0000ffffff00ffffff00ffffff00ffffff00f2
:100a1000ffffff00ffffff00ffffff00ffffff00e2
:100a2000ff000000000800000c0000008000000033
:100a30000c0800000400000082000000aa01010070
:080a40000000000000000000ae
:020000040000fa
:100a48000000fa0005000700b7ff070009000700cb
:100a580054fe07000080fa00000006000000fa00bb
:100a680000002300100888000021a9000080fa0077
:100a7800000006000000fa00800580000000a000c9
:100a88000010a1000020a100800588000080fa0065
:100a9800000006000000fa000000eb000080fa00e9
:040aa8000000060044
:020000040000fa
:020000040002f8
:04af0000ffff00004f
:020000040000fa
:020000040002f8
:04af2000ffff00002f
:020000040000fa
:020000040002f8
:04af300061ff0000bd
:020000040000fa
:020000040002f8
:04af380083ff000093
:020000040000fa
:020000040002f8
:04af4000faff000014
:020000040000fa
:020000040002f8
:04af48007fff000087
:020000040000fa
:020000040002f8
:04af5000dfff00001f
:020000040000fa
:020000040002f8
:04af58007fff000077
:020000040000fa
:020000040002f8
:04af6000ffff0000ef
:00000001FF
